{
  "_format": "hh-sol-artifact-1",
  "contractName": "NFTPunk",
  "sourceName": "contracts/NFTPunk.sol",
  "address": "0x2B2d85737B4A352A4000b055FF0a2B4Db2e7051b",
  "abi": [
    {
      "inputs": [
        {
          "internalType": "uint256",
          "name": "_maxSupply",
          "type": "uint256"
        }
      ],
      "stateMutability": "nonpayable",
      "type": "constructor"
    },
    {
      "anonymous": false,
      "inputs": [
        {
          "indexed": true,
          "internalType": "address",
          "name": "owner",
          "type": "address"
        },
        {
          "indexed": true,
          "internalType": "address",
          "name": "approved",
          "type": "address"
        },
        {
          "indexed": true,
          "internalType": "uint256",
          "name": "tokenId",
          "type": "uint256"
        }
      ],
      "name": "Approval",
      "type": "event"
    },
    {
      "anonymous": false,
      "inputs": [
        {
          "indexed": true,
          "internalType": "address",
          "name": "owner",
          "type": "address"
        },
        {
          "indexed": true,
          "internalType": "address",
          "name": "operator",
          "type": "address"
        },
        {
          "indexed": false,
          "internalType": "bool",
          "name": "approved",
          "type": "bool"
        }
      ],
      "name": "ApprovalForAll",
      "type": "event"
    },
    {
      "anonymous": false,
      "inputs": [
        {
          "indexed": true,
          "internalType": "address",
          "name": "from",
          "type": "address"
        },
        {
          "indexed": true,
          "internalType": "address",
          "name": "to",
          "type": "address"
        },
        {
          "indexed": true,
          "internalType": "uint256",
          "name": "tokenId",
          "type": "uint256"
        }
      ],
      "name": "Transfer",
      "type": "event"
    },
    {
      "inputs": [
        {
          "internalType": "address",
          "name": "to",
          "type": "address"
        },
        {
          "internalType": "uint256",
          "name": "tokenId",
          "type": "uint256"
        }
      ],
      "name": "approve",
      "outputs": [],
      "stateMutability": "nonpayable",
      "type": "function"
    },
    {
      "inputs": [
        {
          "internalType": "address",
          "name": "owner",
          "type": "address"
        }
      ],
      "name": "balanceOf",
      "outputs": [
        {
          "internalType": "uint256",
          "name": "",
          "type": "uint256"
        }
      ],
      "stateMutability": "view",
      "type": "function"
    },
    {
      "inputs": [
        {
          "internalType": "uint256",
          "name": "_dna",
          "type": "uint256"
        }
      ],
      "name": "getAccesoriesType",
      "outputs": [
        {
          "internalType": "string",
          "name": "",
          "type": "string"
        }
      ],
      "stateMutability": "view",
      "type": "function"
    },
    {
      "inputs": [
        {
          "internalType": "uint256",
          "name": "tokenId",
          "type": "uint256"
        }
      ],
      "name": "getApproved",
      "outputs": [
        {
          "internalType": "address",
          "name": "",
          "type": "address"
        }
      ],
      "stateMutability": "view",
      "type": "function"
    },
    {
      "inputs": [
        {
          "internalType": "uint256",
          "name": "_dna",
          "type": "uint256"
        }
      ],
      "name": "getClotheColor",
      "outputs": [
        {
          "internalType": "string",
          "name": "",
          "type": "string"
        }
      ],
      "stateMutability": "view",
      "type": "function"
    },
    {
      "inputs": [
        {
          "internalType": "uint256",
          "name": "_dna",
          "type": "uint256"
        }
      ],
      "name": "getClotheType",
      "outputs": [
        {
          "internalType": "string",
          "name": "",
          "type": "string"
        }
      ],
      "stateMutability": "view",
      "type": "function"
    },
    {
      "inputs": [
        {
          "internalType": "uint256",
          "name": "_dna",
          "type": "uint256"
        }
      ],
      "name": "getEyeBrowType",
      "outputs": [
        {
          "internalType": "string",
          "name": "",
          "type": "string"
        }
      ],
      "stateMutability": "view",
      "type": "function"
    },
    {
      "inputs": [
        {
          "internalType": "uint256",
          "name": "_dna",
          "type": "uint256"
        }
      ],
      "name": "getEyeType",
      "outputs": [
        {
          "internalType": "string",
          "name": "",
          "type": "string"
        }
      ],
      "stateMutability": "view",
      "type": "function"
    },
    {
      "inputs": [
        {
          "internalType": "uint256",
          "name": "_dna",
          "type": "uint256"
        }
      ],
      "name": "getFacialHairColor",
      "outputs": [
        {
          "internalType": "string",
          "name": "",
          "type": "string"
        }
      ],
      "stateMutability": "view",
      "type": "function"
    },
    {
      "inputs": [
        {
          "internalType": "uint256",
          "name": "_dna",
          "type": "uint256"
        }
      ],
      "name": "getFacialHairType",
      "outputs": [
        {
          "internalType": "string",
          "name": "",
          "type": "string"
        }
      ],
      "stateMutability": "view",
      "type": "function"
    },
    {
      "inputs": [
        {
          "internalType": "uint256",
          "name": "_dna",
          "type": "uint256"
        }
      ],
      "name": "getGraphicType",
      "outputs": [
        {
          "internalType": "string",
          "name": "",
          "type": "string"
        }
      ],
      "stateMutability": "view",
      "type": "function"
    },
    {
      "inputs": [
        {
          "internalType": "uint256",
          "name": "_dna",
          "type": "uint256"
        }
      ],
      "name": "getHairColor",
      "outputs": [
        {
          "internalType": "string",
          "name": "",
          "type": "string"
        }
      ],
      "stateMutability": "view",
      "type": "function"
    },
    {
      "inputs": [
        {
          "internalType": "uint256",
          "name": "_dna",
          "type": "uint256"
        }
      ],
      "name": "getHatColor",
      "outputs": [
        {
          "internalType": "string",
          "name": "",
          "type": "string"
        }
      ],
      "stateMutability": "view",
      "type": "function"
    },
    {
      "inputs": [
        {
          "internalType": "uint256",
          "name": "_dna",
          "type": "uint256"
        }
      ],
      "name": "getMouthType",
      "outputs": [
        {
          "internalType": "string",
          "name": "",
          "type": "string"
        }
      ],
      "stateMutability": "view",
      "type": "function"
    },
    {
      "inputs": [
        {
          "internalType": "uint256",
          "name": "_dna",
          "type": "uint256"
        }
      ],
      "name": "getSkinColor",
      "outputs": [
        {
          "internalType": "string",
          "name": "",
          "type": "string"
        }
      ],
      "stateMutability": "view",
      "type": "function"
    },
    {
      "inputs": [
        {
          "internalType": "uint256",
          "name": "_dna",
          "type": "uint256"
        }
      ],
      "name": "getTopType",
      "outputs": [
        {
          "internalType": "string",
          "name": "",
          "type": "string"
        }
      ],
      "stateMutability": "view",
      "type": "function"
    },
    {
      "inputs": [
        {
          "internalType": "uint256",
          "name": "_dna",
          "type": "uint256"
        }
      ],
      "name": "imageByDNA",
      "outputs": [
        {
          "internalType": "string",
          "name": "",
          "type": "string"
        }
      ],
      "stateMutability": "view",
      "type": "function"
    },
    {
      "inputs": [
        {
          "internalType": "address",
          "name": "owner",
          "type": "address"
        },
        {
          "internalType": "address",
          "name": "operator",
          "type": "address"
        }
      ],
      "name": "isApprovedForAll",
      "outputs": [
        {
          "internalType": "bool",
          "name": "",
          "type": "bool"
        }
      ],
      "stateMutability": "view",
      "type": "function"
    },
    {
      "inputs": [],
      "name": "maxSupply",
      "outputs": [
        {
          "internalType": "uint256",
          "name": "",
          "type": "uint256"
        }
      ],
      "stateMutability": "view",
      "type": "function"
    },
    {
      "inputs": [],
      "name": "mint",
      "outputs": [],
      "stateMutability": "nonpayable",
      "type": "function"
    },
    {
      "inputs": [],
      "name": "name",
      "outputs": [
        {
          "internalType": "string",
          "name": "",
          "type": "string"
        }
      ],
      "stateMutability": "view",
      "type": "function"
    },
    {
      "inputs": [
        {
          "internalType": "uint256",
          "name": "tokenId",
          "type": "uint256"
        }
      ],
      "name": "ownerOf",
      "outputs": [
        {
          "internalType": "address",
          "name": "",
          "type": "address"
        }
      ],
      "stateMutability": "view",
      "type": "function"
    },
    {
      "inputs": [
        {
          "internalType": "uint256",
          "name": "_tokenId",
          "type": "uint256"
        },
        {
          "internalType": "address",
          "name": "_minter",
          "type": "address"
        }
      ],
      "name": "pseudoRandomDNA",
      "outputs": [
        {
          "internalType": "uint256",
          "name": "",
          "type": "uint256"
        }
      ],
      "stateMutability": "pure",
      "type": "function"
    },
    {
      "inputs": [
        {
          "internalType": "address",
          "name": "from",
          "type": "address"
        },
        {
          "internalType": "address",
          "name": "to",
          "type": "address"
        },
        {
          "internalType": "uint256",
          "name": "tokenId",
          "type": "uint256"
        }
      ],
      "name": "safeTransferFrom",
      "outputs": [],
      "stateMutability": "nonpayable",
      "type": "function"
    },
    {
      "inputs": [
        {
          "internalType": "address",
          "name": "from",
          "type": "address"
        },
        {
          "internalType": "address",
          "name": "to",
          "type": "address"
        },
        {
          "internalType": "uint256",
          "name": "tokenId",
          "type": "uint256"
        },
        {
          "internalType": "bytes",
          "name": "data",
          "type": "bytes"
        }
      ],
      "name": "safeTransferFrom",
      "outputs": [],
      "stateMutability": "nonpayable",
      "type": "function"
    },
    {
      "inputs": [
        {
          "internalType": "address",
          "name": "operator",
          "type": "address"
        },
        {
          "internalType": "bool",
          "name": "approved",
          "type": "bool"
        }
      ],
      "name": "setApprovalForAll",
      "outputs": [],
      "stateMutability": "nonpayable",
      "type": "function"
    },
    {
      "inputs": [
        {
          "internalType": "bytes4",
          "name": "interfaceId",
          "type": "bytes4"
        }
      ],
      "name": "supportsInterface",
      "outputs": [
        {
          "internalType": "bool",
          "name": "",
          "type": "bool"
        }
      ],
      "stateMutability": "view",
      "type": "function"
    },
    {
      "inputs": [],
      "name": "symbol",
      "outputs": [
        {
          "internalType": "string",
          "name": "",
          "type": "string"
        }
      ],
      "stateMutability": "view",
      "type": "function"
    },
    {
      "inputs": [
        {
          "internalType": "uint256",
          "name": "index",
          "type": "uint256"
        }
      ],
      "name": "tokenByIndex",
      "outputs": [
        {
          "internalType": "uint256",
          "name": "",
          "type": "uint256"
        }
      ],
      "stateMutability": "view",
      "type": "function"
    },
    {
      "inputs": [
        {
          "internalType": "uint256",
          "name": "",
          "type": "uint256"
        }
      ],
      "name": "tokenDNA",
      "outputs": [
        {
          "internalType": "uint256",
          "name": "",
          "type": "uint256"
        }
      ],
      "stateMutability": "view",
      "type": "function"
    },
    {
      "inputs": [
        {
          "internalType": "address",
          "name": "owner",
          "type": "address"
        },
        {
          "internalType": "uint256",
          "name": "index",
          "type": "uint256"
        }
      ],
      "name": "tokenOfOwnerByIndex",
      "outputs": [
        {
          "internalType": "uint256",
          "name": "",
          "type": "uint256"
        }
      ],
      "stateMutability": "view",
      "type": "function"
    },
    {
      "inputs": [
        {
          "internalType": "uint256",
          "name": "_tokenId",
          "type": "uint256"
        }
      ],
      "name": "tokenURI",
      "outputs": [
        {
          "internalType": "string",
          "name": "",
          "type": "string"
        }
      ],
      "stateMutability": "view",
      "type": "function"
    },
    {
      "inputs": [],
      "name": "totalSupply",
      "outputs": [
        {
          "internalType": "uint256",
          "name": "",
          "type": "uint256"
        }
      ],
      "stateMutability": "view",
      "type": "function"
    },
    {
      "inputs": [
        {
          "internalType": "address",
          "name": "from",
          "type": "address"
        },
        {
          "internalType": "address",
          "name": "to",
          "type": "address"
        },
        {
          "internalType": "uint256",
          "name": "tokenId",
          "type": "uint256"
        }
      ],
      "name": "transferFrom",
      "outputs": [],
      "stateMutability": "nonpayable",
      "type": "function"
    }
  ],
  "bytecode": "0x60806040526040518060e001604052806040518060400160405280600581526020017f426c616e6b00000000000000000000000000000000000000000000000000000081525081526020016040518060400160405280600481526020017f4b7572740000000000000000000000000000000000000000000000000000000081525081526020016040518060400160405280600e81526020017f507265736372697074696f6e303100000000000000000000000000000000000081525081526020016040518060400160405280600e81526020017f507265736372697074696f6e303200000000000000000000000000000000000081525081526020016040518060400160405280600581526020017f526f756e6400000000000000000000000000000000000000000000000000000081525081526020016040518060400160405280600a81526020017f53756e676c61737365730000000000000000000000000000000000000000000081525081526020016040518060400160405280600981526020017f5761796661726572730000000000000000000000000000000000000000000000815250815250600a906007620001bc929190620026f2565b50604051806101e001604052806040518060400160405280600581526020017f426c61636b00000000000000000000000000000000000000000000000000000081525081526020016040518060400160405280600681526020017f426c75653031000000000000000000000000000000000000000000000000000081525081526020016040518060400160405280600681526020017f426c75653032000000000000000000000000000000000000000000000000000081525081526020016040518060400160405280600681526020017f426c75653033000000000000000000000000000000000000000000000000000081525081526020016040518060400160405280600681526020017f477261793031000000000000000000000000000000000000000000000000000081525081526020016040518060400160405280600681526020017f477261793032000000000000000000000000000000000000000000000000000081525081526020016040518060400160405280600781526020017f486561746865720000000000000000000000000000000000000000000000000081525081526020016040518060400160405280600a81526020017f50617374656c426c75650000000000000000000000000000000000000000000081525081526020016040518060400160405280600b81526020017f50617374656c477265656e00000000000000000000000000000000000000000081525081526020016040518060400160405280600c81526020017f50617374656c4f72616e6765000000000000000000000000000000000000000081525081526020016040518060400160405280600981526020017f50617374656c526564000000000000000000000000000000000000000000000081525081526020016040518060400160405280600c81526020017f50617374656c59656c6c6f77000000000000000000000000000000000000000081525081526020016040518060400160405280600481526020017f50696e6b0000000000000000000000000000000000000000000000000000000081525081526020016040518060400160405280600381526020017f526564000000000000000000000000000000000000000000000000000000000081525081526020016040518060400160405280600581526020017f5768697465000000000000000000000000000000000000000000000000000000815250815250600b90600f6200054e92919062002752565b506040518061012001604052806040518060400160405280600b81526020017f426c617a6572536869727400000000000000000000000000000000000000000081525081526020016040518060400160405280600d81526020017f426c617a6572537765617465720000000000000000000000000000000000000081525081526020016040518060400160405280600d81526020017f436f6c6c6172537765617465720000000000000000000000000000000000000081525081526020016040518060400160405280600c81526020017f477261706869635368697274000000000000000000000000000000000000000081525081526020016040518060400160405280600681526020017f486f6f646965000000000000000000000000000000000000000000000000000081525081526020016040518060400160405280600781526020017f4f766572616c6c0000000000000000000000000000000000000000000000000081525081526020016040518060400160405280600d81526020017f5368697274437265774e65636b0000000000000000000000000000000000000081525081526020016040518060400160405280600e81526020017f536869727453636f6f704e65636b00000000000000000000000000000000000081525081526020016040518060400160405280600a81526020017f5368697274564e65636b00000000000000000000000000000000000000000000815250815250600c9060096200077e929190620027b2565b506040518061018001604052806040518060400160405280600581526020017f436c6f736500000000000000000000000000000000000000000000000000000081525081526020016040518060400160405280600381526020017f437279000000000000000000000000000000000000000000000000000000000081525081526020016040518060400160405280600781526020017f44656661756c740000000000000000000000000000000000000000000000000081525081526020016040518060400160405280600581526020017f44697a7a7900000000000000000000000000000000000000000000000000000081525081526020016040518060400160405280600781526020017f457965526f6c6c0000000000000000000000000000000000000000000000000081525081526020016040518060400160405280600581526020017f486170707900000000000000000000000000000000000000000000000000000081525081526020016040518060400160405280600681526020017f486561727473000000000000000000000000000000000000000000000000000081525081526020016040518060400160405280600481526020017f536964650000000000000000000000000000000000000000000000000000000081525081526020016040518060400160405280600681526020017f537175696e74000000000000000000000000000000000000000000000000000081525081526020016040518060400160405280600981526020017f537572707269736564000000000000000000000000000000000000000000000081525081526020016040518060400160405280600481526020017f57696e6b0000000000000000000000000000000000000000000000000000000081525081526020016040518060400160405280600981526020017f57696e6b5761636b790000000000000000000000000000000000000000000000815250815250600d90600c62000a5f92919062002812565b506040518061018001604052806040518060400160405280600581526020017f416e67727900000000000000000000000000000000000000000000000000000081525081526020016040518060400160405280600c81526020017f416e6772794e61747572616c000000000000000000000000000000000000000081525081526020016040518060400160405280600781526020017f44656661756c740000000000000000000000000000000000000000000000000081525081526020016040518060400160405280600e81526020017f44656661756c744e61747572616c00000000000000000000000000000000000081525081526020016040518060400160405280600b81526020017f466c61744e61747572616c00000000000000000000000000000000000000000081525081526020016040518060400160405280600d81526020017f526169736564457863697465640000000000000000000000000000000000000081525081526020016040518060400160405280601481526020017f526169736564457863697465644e61747572616c00000000000000000000000081525081526020016040518060400160405280600c81526020017f536164436f6e6365726e6564000000000000000000000000000000000000000081525081526020016040518060400160405280601381526020017f536164436f6e6365726e65644e61747572616c0000000000000000000000000081525081526020016040518060400160405280600e81526020017f556e6962726f774e61747572616c00000000000000000000000000000000000081525081526020016040518060400160405280600681526020017f5570446f776e000000000000000000000000000000000000000000000000000081525081526020016040518060400160405280600d81526020017f5570446f776e4e61747572616c00000000000000000000000000000000000000815250815250600e90600c62000d4092919062002812565b506040518061010001604052806040518060400160405280600681526020017f41756275726e000000000000000000000000000000000000000000000000000081525081526020016040518060400160405280600581526020017f426c61636b00000000000000000000000000000000000000000000000000000081525081526020016040518060400160405280600681526020017f426c6f6e6465000000000000000000000000000000000000000000000000000081525081526020016040518060400160405280600c81526020017f426c6f6e6465476f6c64656e000000000000000000000000000000000000000081525081526020016040518060400160405280600581526020017f42726f776e00000000000000000000000000000000000000000000000000000081525081526020016040518060400160405280600981526020017f42726f776e4461726b000000000000000000000000000000000000000000000081525081526020016040518060400160405280600881526020017f506c6174696e756d00000000000000000000000000000000000000000000000081525081526020016040518060400160405280600381526020017f5265640000000000000000000000000000000000000000000000000000000000815250815250600f90600862000f3592919062002872565b506040518060c001604052806040518060400160405280600581526020017f426c616e6b00000000000000000000000000000000000000000000000000000081525081526020016040518060400160405280600b81526020017f42656172644d656469756d00000000000000000000000000000000000000000081525081526020016040518060400160405280600a81526020017f42656172644c696768740000000000000000000000000000000000000000000081525081526020016040518060400160405280600d81526020017f42656172644d616765737469630000000000000000000000000000000000000081525081526020016040518060400160405280600e81526020017f4d6f7573746163686546616e637900000000000000000000000000000000000081525081526020016040518060400160405280600f81526020017f4d6f757374616368654d61676e756d00000000000000000000000000000000008152508152506010906006620010b3929190620028d2565b506040518061014001604052806040518060400160405280600681526020017f41756275726e000000000000000000000000000000000000000000000000000081525081526020016040518060400160405280600581526020017f426c61636b00000000000000000000000000000000000000000000000000000081525081526020016040518060400160405280600681526020017f426c6f6e6465000000000000000000000000000000000000000000000000000081525081526020016040518060400160405280600c81526020017f426c6f6e6465476f6c64656e000000000000000000000000000000000000000081525081526020016040518060400160405280600581526020017f42726f776e00000000000000000000000000000000000000000000000000000081525081526020016040518060400160405280600981526020017f42726f776e4461726b000000000000000000000000000000000000000000000081525081526020016040518060400160405280600a81526020017f50617374656c50696e6b0000000000000000000000000000000000000000000081525081526020016040518060400160405280600881526020017f506c6174696e756d00000000000000000000000000000000000000000000000081525081526020016040518060400160405280600381526020017f526564000000000000000000000000000000000000000000000000000000000081525081526020016040518060400160405280600a81526020017f53696c7665724772617900000000000000000000000000000000000000000000815250815250601190600a6200131e92919062002932565b50604051806101e001604052806040518060400160405280600581526020017f426c61636b00000000000000000000000000000000000000000000000000000081525081526020016040518060400160405280600681526020017f426c75653031000000000000000000000000000000000000000000000000000081525081526020016040518060400160405280600681526020017f426c75653032000000000000000000000000000000000000000000000000000081525081526020016040518060400160405280600681526020017f426c75653033000000000000000000000000000000000000000000000000000081525081526020016040518060400160405280600681526020017f477261793031000000000000000000000000000000000000000000000000000081525081526020016040518060400160405280600681526020017f477261793032000000000000000000000000000000000000000000000000000081525081526020016040518060400160405280600781526020017f486561746865720000000000000000000000000000000000000000000000000081525081526020016040518060400160405280600a81526020017f50617374656c426c75650000000000000000000000000000000000000000000081525081526020016040518060400160405280600b81526020017f50617374656c477265656e00000000000000000000000000000000000000000081525081526020016040518060400160405280600c81526020017f50617374656c4f72616e6765000000000000000000000000000000000000000081525081526020016040518060400160405280600981526020017f50617374656c526564000000000000000000000000000000000000000000000081525081526020016040518060400160405280600c81526020017f50617374656c59656c6c6f77000000000000000000000000000000000000000081525081526020016040518060400160405280600481526020017f50696e6b0000000000000000000000000000000000000000000000000000000081525081526020016040518060400160405280600381526020017f526564000000000000000000000000000000000000000000000000000000000081525081526020016040518060400160405280600581526020017f5768697465000000000000000000000000000000000000000000000000000000815250815250601290600f620016b092919062002752565b506040518061016001604052806040518060400160405280600381526020017f426174000000000000000000000000000000000000000000000000000000000081525081526020016040518060400160405280600681526020017f43756d626961000000000000000000000000000000000000000000000000000081525081526020016040518060400160405280600481526020017f446565720000000000000000000000000000000000000000000000000000000081525081526020016040518060400160405280600781526020017f4469616d6f6e640000000000000000000000000000000000000000000000000081525081526020016040518060400160405280600481526020017f486f6c610000000000000000000000000000000000000000000000000000000081525081526020016040518060400160405280600581526020017f50697a7a6100000000000000000000000000000000000000000000000000000081525081526020016040518060400160405280600681526020017f526573697374000000000000000000000000000000000000000000000000000081525081526020016040518060400160405280600681526020017f53656c656e61000000000000000000000000000000000000000000000000000081525081526020016040518060400160405280600481526020017f426561720000000000000000000000000000000000000000000000000000000081525081526020016040518060400160405280600c81526020017f536b756c6c4f75746c696e65000000000000000000000000000000000000000081525081526020016040518060400160405280600581526020017f536b756c6c000000000000000000000000000000000000000000000000000000815250815250601390600b6200195692919062002992565b506040518061018001604052806040518060400160405280600981526020017f436f6e6365726e6564000000000000000000000000000000000000000000000081525081526020016040518060400160405280600781526020017f44656661756c740000000000000000000000000000000000000000000000000081525081526020016040518060400160405280600981526020017f44697362656c696566000000000000000000000000000000000000000000000081525081526020016040518060400160405280600681526020017f456174696e67000000000000000000000000000000000000000000000000000081525081526020016040518060400160405280600781526020017f4772696d6163650000000000000000000000000000000000000000000000000081525081526020016040518060400160405280600381526020017f536164000000000000000000000000000000000000000000000000000000000081525081526020016040518060400160405280600a81526020017f53637265616d4f70656e0000000000000000000000000000000000000000000081525081526020016040518060400160405280600781526020017f536572696f75730000000000000000000000000000000000000000000000000081525081526020016040518060400160405280600581526020017f536d696c6500000000000000000000000000000000000000000000000000000081525081526020016040518060400160405280600681526020017f546f6e677565000000000000000000000000000000000000000000000000000081525081526020016040518060400160405280600781526020017f5477696e6b6c650000000000000000000000000000000000000000000000000081525081526020016040518060400160405280600581526020017f566f6d6974000000000000000000000000000000000000000000000000000000815250815250601490600c62001c3792919062002812565b506040518060e001604052806040518060400160405280600681526020017f54616e6e6564000000000000000000000000000000000000000000000000000081525081526020016040518060400160405280600681526020017f59656c6c6f77000000000000000000000000000000000000000000000000000081525081526020016040518060400160405280600481526020017f50616c650000000000000000000000000000000000000000000000000000000081525081526020016040518060400160405280600581526020017f4c6967687400000000000000000000000000000000000000000000000000000081525081526020016040518060400160405280600581526020017f42726f776e00000000000000000000000000000000000000000000000000000081525081526020016040518060400160405280600981526020017f4461726b42726f776e000000000000000000000000000000000000000000000081525081526020016040518060400160405280600581526020017f426c61636b000000000000000000000000000000000000000000000000000000815250815250601590600762001df0929190620026f2565b506040518061046001604052806040518060400160405280600681526020017f4e6f48616972000000000000000000000000000000000000000000000000000081525081526020016040518060400160405280600881526020017f457965706174636800000000000000000000000000000000000000000000000081525081526020016040518060400160405280600381526020017f486174000000000000000000000000000000000000000000000000000000000081525081526020016040518060400160405280600581526020017f48696a616200000000000000000000000000000000000000000000000000000081525081526020016040518060400160405280600681526020017f54757262616e000000000000000000000000000000000000000000000000000081525081526020016040518060400160405280600a81526020017f57696e746572486174310000000000000000000000000000000000000000000081525081526020016040518060400160405280600a81526020017f57696e746572486174320000000000000000000000000000000000000000000081525081526020016040518060400160405280600a81526020017f57696e746572486174330000000000000000000000000000000000000000000081525081526020016040518060400160405280600a81526020017f57696e746572486174340000000000000000000000000000000000000000000081525081526020016040518060400160405280600f81526020017f4c6f6e674861697242696748616972000000000000000000000000000000000081525081526020016040518060400160405280600b81526020017f4c6f6e6748616972426f6200000000000000000000000000000000000000000081525081526020016040518060400160405280600b81526020017f4c6f6e674861697242756e00000000000000000000000000000000000000000081525081526020016040518060400160405280600d81526020017f4c6f6e67486169724375726c790000000000000000000000000000000000000081525081526020016040518060400160405280600d81526020017f4c6f6e674861697243757276790000000000000000000000000000000000000081525081526020016040518060400160405280600e81526020017f4c6f6e674861697244726561647300000000000000000000000000000000000081525081526020016040518060400160405280600d81526020017f4c6f6e674861697246726964610000000000000000000000000000000000000081525081526020016040518060400160405280600b81526020017f4c6f6e674861697246726f00000000000000000000000000000000000000000081525081526020016040518060400160405280600f81526020017f4c6f6e674861697246726f42616e64000000000000000000000000000000000081525081526020016040518060400160405280601281526020017f4c6f6e67486169724e6f74546f6f4c6f6e67000000000000000000000000000081525081526020016040518060400160405280601381526020017f4c6f6e674861697253686176656453696465730000000000000000000000000081525081526020016040518060400160405280601281526020017f4c6f6e67486169724d696157616c6c616365000000000000000000000000000081525081526020016040518060400160405280601081526020017f4c6f6e674861697253747261696768740000000000000000000000000000000081525081526020016040518060400160405280601181526020017f4c6f6e674861697253747261696768743200000000000000000000000000000081525081526020016040518060400160405280601681526020017f4c6f6e67486169725374726169676874537472616e640000000000000000000081525081526020016040518060400160405280601181526020017f53686f727448616972447265616473303100000000000000000000000000000081525081526020016040518060400160405280601181526020017f53686f727448616972447265616473303200000000000000000000000000000081525081526020016040518060400160405280601081526020017f53686f7274486169724672697a7a6c650000000000000000000000000000000081525081526020016040518060400160405280601581526020017f53686f7274486169725368616767794d756c6c6574000000000000000000000081525081526020016040518060400160405280601381526020017f53686f72744861697253686f72744375726c790000000000000000000000000081525081526020016040518060400160405280601281526020017f53686f72744861697253686f7274466c6174000000000000000000000000000081525081526020016040518060400160405280601381526020017f53686f72744861697253686f7274526f756e640000000000000000000000000081525081526020016040518060400160405280601381526020017f53686f72744861697253686f727457617665640000000000000000000000000081525081526020016040518060400160405280600e81526020017f53686f727448616972536964657300000000000000000000000000000000000081525081526020016040518060400160405280601281526020017f53686f727448616972546865436165736172000000000000000000000000000081525081526020016040518060400160405280601a81526020017f53686f727448616972546865436165736172536964655061727400000000000081525081525060169060236200261e929190620029f2565b503480156200262c57600080fd5b5060405162007d6a38038062007d6a833981810160405281019062002652919062002b1f565b6040518060400160405280600881526020017f4e46542050756e6b0000000000000000000000000000000000000000000000008152506040518060400160405280600481526020017f4e465450000000000000000000000000000000000000000000000000000000008152508160009081620026cf919062002dc1565b508060019081620026e1919062002dc1565b505050806018819055505062002ea8565b8280548282559060005260206000209081019282156200273f579160200282015b828111156200273e5782518290816200272d919062002dc1565b509160200191906001019062002713565b5b5090506200274e919062002a52565b5090565b8280548282559060005260206000209081019282156200279f579160200282015b828111156200279e5782518290816200278d919062002dc1565b509160200191906001019062002773565b5b509050620027ae919062002a52565b5090565b828054828255906000526020600020908101928215620027ff579160200282015b82811115620027fe578251829081620027ed919062002dc1565b5091602001919060010190620027d3565b5b5090506200280e919062002a52565b5090565b8280548282559060005260206000209081019282156200285f579160200282015b828111156200285e5782518290816200284d919062002dc1565b509160200191906001019062002833565b5b5090506200286e919062002a52565b5090565b828054828255906000526020600020908101928215620028bf579160200282015b82811115620028be578251829081620028ad919062002dc1565b509160200191906001019062002893565b5b509050620028ce919062002a52565b5090565b8280548282559060005260206000209081019282156200291f579160200282015b828111156200291e5782518290816200290d919062002dc1565b5091602001919060010190620028f3565b5b5090506200292e919062002a52565b5090565b8280548282559060005260206000209081019282156200297f579160200282015b828111156200297e5782518290816200296d919062002dc1565b509160200191906001019062002953565b5b5090506200298e919062002a52565b5090565b828054828255906000526020600020908101928215620029df579160200282015b82811115620029de578251829081620029cd919062002dc1565b5091602001919060010190620029b3565b5b509050620029ee919062002a52565b5090565b82805482825590600052602060002090810192821562002a3f579160200282015b8281111562002a3e57825182908162002a2d919062002dc1565b509160200191906001019062002a13565b5b50905062002a4e919062002a52565b5090565b5b8082111562002a76576000818162002a6c919062002a7a565b5060010162002a53565b5090565b50805462002a889062002bba565b6000825580601f1062002a9c575062002abd565b601f01602090049060005260206000209081019062002abc919062002ac0565b5b50565b5b8082111562002adb57600081600090555060010162002ac1565b5090565b600080fd5b6000819050919050565b62002af98162002ae4565b811462002b0557600080fd5b50565b60008151905062002b198162002aee565b92915050565b60006020828403121562002b385762002b3762002adf565b5b600062002b488482850162002b08565b91505092915050565b600081519050919050565b7f4e487b7100000000000000000000000000000000000000000000000000000000600052604160045260246000fd5b7f4e487b7100000000000000000000000000000000000000000000000000000000600052602260045260246000fd5b6000600282049050600182168062002bd357607f821691505b60208210810362002be95762002be862002b8b565b5b50919050565b60008190508160005260206000209050919050565b60006020601f8301049050919050565b600082821b905092915050565b60006008830262002c537fffffffffffffffffffffffffffffffffffffffffffffffffffffffffffffffff8262002c14565b62002c5f868362002c14565b95508019841693508086168417925050509392505050565b6000819050919050565b600062002ca262002c9c62002c968462002ae4565b62002c77565b62002ae4565b9050919050565b6000819050919050565b62002cbe8362002c81565b62002cd662002ccd8262002ca9565b84845462002c21565b825550505050565b600090565b62002ced62002cde565b62002cfa81848462002cb3565b505050565b5b8181101562002d225762002d1660008262002ce3565b60018101905062002d00565b5050565b601f82111562002d715762002d3b8162002bef565b62002d468462002c04565b8101602085101562002d56578190505b62002d6e62002d658562002c04565b83018262002cff565b50505b505050565b600082821c905092915050565b600062002d966000198460080262002d76565b1980831691505092915050565b600062002db1838362002d83565b9150826002028217905092915050565b62002dcc8262002b51565b67ffffffffffffffff81111562002de85762002de762002b5c565b5b62002df4825462002bba565b62002e0182828562002d26565b600060209050601f83116001811462002e39576000841562002e24578287015190505b62002e30858262002da3565b86555062002ea0565b601f19841662002e498662002bef565b60005b8281101562002e735784890151825560018201915060208501945060208101905062002e4c565b8683101562002e93578489015162002e8f601f89168262002d83565b8355505b6001600288020188555050505b505050505050565b614eb28062002eb86000396000f3fe608060405234801561001057600080fd5b50600436106102065760003560e01c806370a082311161011a578063b88d4fde116100ad578063cc4e56951161007c578063cc4e5695146106bb578063d5abeb01146106eb578063dac1419e14610709578063e2eced2814610739578063e985e9c51461076957610206565b8063b88d4fde1461060f578063be65d7511461062b578063c0496cf51461065b578063c87b56dd1461068b57610206565b806395d89b41116100e957806395d89b4114610575578063a22cb46514610593578063a2ec3e9e146105af578063b70930de146105df57610206565b806370a08231146104b557806373075aff146104e557806384425a84146105155780638602dd6a1461054557610206565b806318160ddd1161019d578063425d784f1161016c578063425d784f146103d957806342842e0e146104095780634f6ccce71461042557806360d58aed146104555780636352211e1461048557610206565b806318160ddd1461033f57806318a3c0d11461035d57806323b872dd1461038d5780632f745c59146103a957610206565b8063081812fc116101d9578063081812fc146102b9578063095ea7b3146102e95780631249c58b1461030557806316b3074f1461030f57610206565b806301ffc9a71461020b57806303678fd51461023b578063039984ba1461026b57806306fdde031461029b575b600080fd5b610225600480360381019061022091906132b8565b610799565b6040516102329190613300565b60405180910390f35b61025560048036038101906102509190613351565b610813565b604051610262919061340e565b60405180910390f35b61028560048036038101906102809190613351565b6108e5565b604051610292919061340e565b60405180910390f35b6102a36109b7565b6040516102b0919061340e565b60405180910390f35b6102d360048036038101906102ce9190613351565b610a49565b6040516102e09190613471565b60405180910390f35b61030360048036038101906102fe91906134b8565b610a8f565b005b61030d610ba6565b005b610329600480360381019061032491906134f8565b610c30565b6040516103369190613547565b60405180910390f35b610347610c96565b6040516103549190613547565b60405180910390f35b61037760048036038101906103729190613351565b610ca3565b604051610384919061340e565b60405180910390f35b6103a760048036038101906103a29190613562565b610d75565b005b6103c360048036038101906103be91906134b8565b610dd5565b6040516103d09190613547565b60405180910390f35b6103f360048036038101906103ee9190613351565b610e7a565b604051610400919061340e565b60405180910390f35b610423600480360381019061041e9190613562565b610f4c565b005b61043f600480360381019061043a9190613351565b610f6c565b60405161044c9190613547565b60405180910390f35b61046f600480360381019061046a9190613351565b610fdd565b60405161047c919061340e565b60405180910390f35b61049f600480360381019061049a9190613351565b6110af565b6040516104ac9190613471565b60405180910390f35b6104cf60048036038101906104ca91906135b5565b611135565b6040516104dc9190613547565b60405180910390f35b6104ff60048036038101906104fa9190613351565b6111ec565b60405161050c919061340e565b60405180910390f35b61052f600480360381019061052a9190613351565b6112be565b60405161053c919061340e565b60405180910390f35b61055f600480360381019061055a9190613351565b611390565b60405161056c919061340e565b60405180910390f35b61057d611462565b60405161058a919061340e565b60405180910390f35b6105ad60048036038101906105a8919061360e565b6114f4565b005b6105c960048036038101906105c49190613351565b61150a565b6040516105d6919061340e565b60405180910390f35b6105f960048036038101906105f49190613351565b6115dc565b604051610606919061340e565b60405180910390f35b61062960048036038101906106249190613783565b6116ae565b005b61064560048036038101906106409190613351565b611710565b6040516106529190613547565b60405180910390f35b61067560048036038101906106709190613351565b611728565b604051610682919061340e565b60405180910390f35b6106a560048036038101906106a09190613351565b6117fa565b6040516106b2919061340e565b60405180910390f35b6106d560048036038101906106d09190613351565b6118c9565b6040516106e2919061340e565b60405180910390f35b6106f361199b565b6040516107009190613547565b60405180910390f35b610723600480360381019061071e9190613351565b6119a1565b604051610730919061340e565b60405180910390f35b610753600480360381019061074e9190613351565b611a73565b604051610760919061340e565b60405180910390f35b610783600480360381019061077e9190613806565b611aad565b6040516107909190613300565b60405180910390f35b60007f780e9d63000000000000000000000000000000000000000000000000000000007bffffffffffffffffffffffffffffffffffffffffffffffffffffffff1916827bffffffffffffffffffffffffffffffffffffffffffffffffffffffff1916148061080c575061080b82611b41565b5b9050919050565b60606000610822836000611c23565b9050600a80805490508260ff166108399190613875565b8154811061084a576108496138a6565b5b90600052602060002001805461085f90613904565b80601f016020809104026020016040519081016040528092919081815260200182805461088b90613904565b80156108d85780601f106108ad576101008083540402835291602001916108d8565b820191906000526020600020905b8154815290600101906020018083116108bb57829003601f168201915b5050505050915050919050565b606060006108f4836008611c23565b60ff169050600e80805490508261090b9190613875565b8154811061091c5761091b6138a6565b5b90600052602060002001805461093190613904565b80601f016020809104026020016040519081016040528092919081815260200182805461095d90613904565b80156109aa5780601f1061097f576101008083540402835291602001916109aa565b820191906000526020600020905b81548152906001019060200180831161098d57829003601f168201915b5050505050915050919050565b6060600080546109c690613904565b80601f01602080910402602001604051908101604052809291908181526020018280546109f290613904565b8015610a3f5780601f10610a1457610100808354040283529160200191610a3f565b820191906000526020600020905b815481529060010190602001808311610a2257829003601f168201915b5050505050905090565b6000610a5482611c80565b6004600083815260200190815260200160002060009054906101000a900473ffffffffffffffffffffffffffffffffffffffff169050919050565b6000610a9a826110af565b90508073ffffffffffffffffffffffffffffffffffffffff168373ffffffffffffffffffffffffffffffffffffffff1603610b0a576040517f08c379a0000000000000000000000000000000000000000000000000000000008152600401610b01906139a7565b60405180910390fd5b8073ffffffffffffffffffffffffffffffffffffffff16610b29611ccb565b73ffffffffffffffffffffffffffffffffffffffff161480610b585750610b5781610b52611ccb565b611aad565b5b610b97576040517f08c379a0000000000000000000000000000000000000000000000000000000008152600401610b8e90613a39565b60405180910390fd5b610ba18383611cd3565b505050565b6000610bb26017611d8c565b90506018548110610bf8576040517f08c379a0000000000000000000000000000000000000000000000000000000008152600401610bef90613aa5565b60405180910390fd5b610c028133610c30565b6019600083815260200190815260200160002081905550610c233382611d9a565b610c2d6017611db8565b50565b6000808273ffffffffffffffffffffffffffffffffffffffff1684610c559190613af4565b9050600081604051602001610c6a9190613b49565b60405160208183030381529060405290506000818051906020012090508060001c935050505092915050565b6000600880549050905090565b60606000610cb2836004611c23565b60ff169050600c808054905082610cc99190613875565b81548110610cda57610cd96138a6565b5b906000526020600020018054610cef90613904565b80601f0160208091040260200160405190810160405280929190818152602001828054610d1b90613904565b8015610d685780601f10610d3d57610100808354040283529160200191610d68565b820191906000526020600020905b815481529060010190602001808311610d4b57829003601f168201915b5050505050915050919050565b610d86610d80611ccb565b82611dce565b610dc5576040517f08c379a0000000000000000000000000000000000000000000000000000000008152600401610dbc90613bd6565b60405180910390fd5b610dd0838383611e63565b505050565b6000610de083611135565b8210610e21576040517f08c379a0000000000000000000000000000000000000000000000000000000008152600401610e1890613c68565b60405180910390fd5b600660008473ffffffffffffffffffffffffffffffffffffffff1673ffffffffffffffffffffffffffffffffffffffff168152602001908152602001600020600083815260200190815260200160002054905092915050565b60606000610e89836014611c23565b60ff1690506014808054905082610ea09190613875565b81548110610eb157610eb06138a6565b5b906000526020600020018054610ec690613904565b80601f0160208091040260200160405190810160405280929190818152602001828054610ef290613904565b8015610f3f5780601f10610f1457610100808354040283529160200191610f3f565b820191906000526020600020905b815481529060010190602001808311610f2257829003601f168201915b5050505050915050919050565b610f67838383604051806020016040528060008152506116ae565b505050565b6000610f76610c96565b8210610fb7576040517f08c379a0000000000000000000000000000000000000000000000000000000008152600401610fae90613cfa565b60405180910390fd5b60088281548110610fcb57610fca6138a6565b5b90600052602060002001549050919050565b60606000610fec836018611c23565b60ff16905060168080549050826110039190613875565b81548110611014576110136138a6565b5b90600052602060002001805461102990613904565b80601f016020809104026020016040519081016040528092919081815260200182805461105590613904565b80156110a25780601f10611077576101008083540402835291602001916110a2565b820191906000526020600020905b81548152906001019060200180831161108557829003601f168201915b5050505050915050919050565b6000806110bb8361215c565b9050600073ffffffffffffffffffffffffffffffffffffffff168173ffffffffffffffffffffffffffffffffffffffff160361112c576040517f08c379a000000000000000000000000000000000000000000000000000000000815260040161112390613d66565b60405180910390fd5b80915050919050565b60008073ffffffffffffffffffffffffffffffffffffffff168273ffffffffffffffffffffffffffffffffffffffff16036111a5576040517f08c379a000000000000000000000000000000000000000000000000000000000815260040161119c90613df8565b60405180910390fd5b600360008373ffffffffffffffffffffffffffffffffffffffff1673ffffffffffffffffffffffffffffffffffffffff168152602001908152602001600020549050919050565b606060006111fb836016611c23565b60ff16905060158080549050826112129190613875565b81548110611223576112226138a6565b5b90600052602060002001805461123890613904565b80601f016020809104026020016040519081016040528092919081815260200182805461126490613904565b80156112b15780601f10611286576101008083540402835291602001916112b1565b820191906000526020600020905b81548152906001019060200180831161129457829003601f168201915b5050505050915050919050565b606060006112cd836006611c23565b60ff169050600d8080549050826112e49190613875565b815481106112f5576112f46138a6565b5b90600052602060002001805461130a90613904565b80601f016020809104026020016040519081016040528092919081815260200182805461133690613904565b80156113835780601f1061135857610100808354040283529160200191611383565b820191906000526020600020905b81548152906001019060200180831161136657829003601f168201915b5050505050915050919050565b6060600061139f836012611c23565b60ff16905060138080549050826113b69190613875565b815481106113c7576113c66138a6565b5b9060005260206000200180546113dc90613904565b80601f016020809104026020016040519081016040528092919081815260200182805461140890613904565b80156114555780601f1061142a57610100808354040283529160200191611455565b820191906000526020600020905b81548152906001019060200180831161143857829003601f168201915b5050505050915050919050565b60606001805461147190613904565b80601f016020809104026020016040519081016040528092919081815260200182805461149d90613904565b80156114ea5780601f106114bf576101008083540402835291602001916114ea565b820191906000526020600020905b8154815290600101906020018083116114cd57829003601f168201915b5050505050905090565b6115066114ff611ccb565b8383612199565b5050565b60606000611519836010611c23565b60ff16905060128080549050826115309190613875565b81548110611541576115406138a6565b5b90600052602060002001805461155690613904565b80601f016020809104026020016040519081016040528092919081815260200182805461158290613904565b80156115cf5780601f106115a4576101008083540402835291602001916115cf565b820191906000526020600020905b8154815290600101906020018083116115b257829003601f168201915b5050505050915050919050565b606060006115eb83600e611c23565b60ff16905060118080549050826116029190613875565b81548110611613576116126138a6565b5b90600052602060002001805461162890613904565b80601f016020809104026020016040519081016040528092919081815260200182805461165490613904565b80156116a15780601f10611676576101008083540402835291602001916116a1565b820191906000526020600020905b81548152906001019060200180831161168457829003601f168201915b5050505050915050919050565b6116bf6116b9611ccb565b83611dce565b6116fe576040517f08c379a00000000000000000000000000000000000000000000000000000000081526004016116f590613bd6565b60405180910390fd5b61170a84848484612305565b50505050565b60196020528060005260406000206000915090505481565b60606000611737836002611c23565b9050600b80805490508260ff1661174e9190613875565b8154811061175f5761175e6138a6565b5b90600052602060002001805461177490613904565b80601f01602080910402602001604051908101604052809291908181526020018280546117a090613904565b80156117ed5780601f106117c2576101008083540402835291602001916117ed565b820191906000526020600020905b8154815290600101906020018083116117d057829003601f168201915b5050505050915050919050565b606061180582612361565b611844576040517f08c379a000000000000000000000000000000000000000000000000000000000815260040161183b90613e8a565b60405180910390fd5b600060196000848152602001908152602001600020549050600061186782611a73565b9050600061189d611877866123a2565b836040516020016118899291906140d4565b604051602081830303815290604052612470565b9050806040516020016118b09190614165565b6040516020818303038152906040529350505050919050565b606060006118d883600a611c23565b60ff169050600f8080549050826118ef9190613875565b81548110611900576118ff6138a6565b5b90600052602060002001805461191590613904565b80601f016020809104026020016040519081016040528092919081815260200182805461194190613904565b801561198e5780601f106119635761010080835404028352916020019161198e565b820191906000526020600020905b81548152906001019060200180831161197157829003601f168201915b5050505050915050919050565b60185481565b606060006119b083600c611c23565b60ff16905060108080549050826119c79190613875565b815481106119d8576119d76138a6565b5b9060005260206000200180546119ed90613904565b80601f0160208091040260200160405190810160405280929190818152602001828054611a1990613904565b8015611a665780601f10611a3b57610100808354040283529160200191611a66565b820191906000526020600020905b815481529060010190602001808311611a4957829003601f168201915b5050505050915050919050565b6060611a7d6125d3565b611a8683612610565b604051602001611a979291906141d3565b6040516020818303038152906040529050919050565b6000600560008473ffffffffffffffffffffffffffffffffffffffff1673ffffffffffffffffffffffffffffffffffffffff16815260200190815260200160002060008373ffffffffffffffffffffffffffffffffffffffff1673ffffffffffffffffffffffffffffffffffffffff16815260200190815260200160002060009054906101000a900460ff16905092915050565b60007f80ac58cd000000000000000000000000000000000000000000000000000000007bffffffffffffffffffffffffffffffffffffffffffffffffffffffff1916827bffffffffffffffffffffffffffffffffffffffffffffffffffffffff19161480611c0c57507f5b5e139f000000000000000000000000000000000000000000000000000000007bffffffffffffffffffffffffffffffffffffffffffffffffffffffff1916827bffffffffffffffffffffffffffffffffffffffffffffffffffffffff1916145b80611c1c5750611c1b826126dd565b5b9050919050565b600081600a611c329190614342565b6001611c3e919061438d565b600283611c4b91906143cf565b600a611c579190614342565b6001611c63919061438d565b84611c6e9190613875565b611c789190614404565b905092915050565b611c8981612361565b611cc8576040517f08c379a0000000000000000000000000000000000000000000000000000000008152600401611cbf90613d66565b60405180910390fd5b50565b600033905090565b816004600083815260200190815260200160002060006101000a81548173ffffffffffffffffffffffffffffffffffffffff021916908373ffffffffffffffffffffffffffffffffffffffff160217905550808273ffffffffffffffffffffffffffffffffffffffff16611d46836110af565b73ffffffffffffffffffffffffffffffffffffffff167f8c5be1e5ebec7d5bd14f71427d1e84f3dd0314c0f7b2291e5b200ac8c7c3b92560405160405180910390a45050565b600081600001549050919050565b611db4828260405180602001604052806000815250612747565b5050565b6001816000016000828254019250508190555050565b600080611dda836110af565b90508073ffffffffffffffffffffffffffffffffffffffff168473ffffffffffffffffffffffffffffffffffffffff161480611e1c5750611e1b8185611aad565b5b80611e5a57508373ffffffffffffffffffffffffffffffffffffffff16611e4284610a49565b73ffffffffffffffffffffffffffffffffffffffff16145b91505092915050565b8273ffffffffffffffffffffffffffffffffffffffff16611e83826110af565b73ffffffffffffffffffffffffffffffffffffffff1614611ed9576040517f08c379a0000000000000000000000000000000000000000000000000000000008152600401611ed0906144a7565b60405180910390fd5b600073ffffffffffffffffffffffffffffffffffffffff168273ffffffffffffffffffffffffffffffffffffffff1603611f48576040517f08c379a0000000000000000000000000000000000000000000000000000000008152600401611f3f90614539565b60405180910390fd5b611f5583838360016127a2565b8273ffffffffffffffffffffffffffffffffffffffff16611f75826110af565b73ffffffffffffffffffffffffffffffffffffffff1614611fcb576040517f08c379a0000000000000000000000000000000000000000000000000000000008152600401611fc2906144a7565b60405180910390fd5b6004600082815260200190815260200160002060006101000a81549073ffffffffffffffffffffffffffffffffffffffff02191690556001600360008573ffffffffffffffffffffffffffffffffffffffff1673ffffffffffffffffffffffffffffffffffffffff168152602001908152602001600020600082825403925050819055506001600360008473ffffffffffffffffffffffffffffffffffffffff1673ffffffffffffffffffffffffffffffffffffffff16815260200190815260200160002060008282540192505081905550816002600083815260200190815260200160002060006101000a81548173ffffffffffffffffffffffffffffffffffffffff021916908373ffffffffffffffffffffffffffffffffffffffff160217905550808273ffffffffffffffffffffffffffffffffffffffff168473ffffffffffffffffffffffffffffffffffffffff167fddf252ad1be2c89b69c2b068fc378daa952ba7f163c4a11628f55a4df523b3ef60405160405180910390a46121578383836001612900565b505050565b60006002600083815260200190815260200160002060009054906101000a900473ffffffffffffffffffffffffffffffffffffffff169050919050565b8173ffffffffffffffffffffffffffffffffffffffff168373ffffffffffffffffffffffffffffffffffffffff1603612207576040517f08c379a00000000000000000000000000000000000000000000000000000000081526004016121fe906145a5565b60405180910390fd5b80600560008573ffffffffffffffffffffffffffffffffffffffff1673ffffffffffffffffffffffffffffffffffffffff16815260200190815260200160002060008473ffffffffffffffffffffffffffffffffffffffff1673ffffffffffffffffffffffffffffffffffffffff16815260200190815260200160002060006101000a81548160ff0219169083151502179055508173ffffffffffffffffffffffffffffffffffffffff168373ffffffffffffffffffffffffffffffffffffffff167f17307eab39ab6107e8899845ad3d59bd9653f200f220920489ca2b5937696c31836040516122f89190613300565b60405180910390a3505050565b612310848484611e63565b61231c84848484612906565b61235b576040517f08c379a000000000000000000000000000000000000000000000000000000000815260040161235290614637565b60405180910390fd5b50505050565b60008073ffffffffffffffffffffffffffffffffffffffff166123838361215c565b73ffffffffffffffffffffffffffffffffffffffff1614159050919050565b6060600060016123b184612a8d565b01905060008167ffffffffffffffff8111156123d0576123cf613658565b5b6040519080825280601f01601f1916602001820160405280156124025781602001600182028036833780820191505090505b509050600082602001820190505b600115612465578080600190039150507f3031323334353637383961626364656600000000000000000000000000000000600a86061a8153600a858161245957612458613846565b5b04945060008503612410575b819350505050919050565b60606000825103612492576040518060200160405280600081525090506125ce565b6000604051806060016040528060408152602001614e3d60409139905060006003600285516124c19190613af4565b6124cb9190614404565b60046124d7919061438d565b67ffffffffffffffff8111156124f0576124ef613658565b5b6040519080825280601f01601f1916602001820160405280156125225781602001600182028036833780820191505090505b509050600182016020820185865187015b8082101561258e576003820191508151603f8160121c168501518453600184019350603f81600c1c168501518453600184019350603f8160061c168501518453600184019350603f8116850151845360018401935050612533565b50506003865106600181146125aa57600281146125bd576125c5565b603d6001830353603d60028303536125c5565b603d60018303535b50505080925050505b919050565b60606040518060400160405280601581526020017f68747470733a2f2f6176617461616172732e696f2f0000000000000000000000815250905090565b60608061261c83610813565b61262584611728565b61262e85610ca3565b612637866112be565b612640876108e5565b612649886118c9565b612652896119a1565b61265b8a6115dc565b6126648b61150a565b61266d8c611390565b6126768d610e7a565b61267f8e6111ec565b60405160200161269a9c9b9a999897969594939291906149e7565b6040516020818303038152906040529050806126b584610fdd565b6040516020016126c6929190614b5d565b604051602081830303815290604052915050919050565b60007f01ffc9a7000000000000000000000000000000000000000000000000000000007bffffffffffffffffffffffffffffffffffffffffffffffffffffffff1916827bffffffffffffffffffffffffffffffffffffffffffffffffffffffff1916149050919050565b6127518383612be0565b61275e6000848484612906565b61279d576040517f08c379a000000000000000000000000000000000000000000000000000000000815260040161279490614637565b60405180910390fd5b505050565b6127ae84848484612dfd565b60018111156127f2576040517f08c379a00000000000000000000000000000000000000000000000000000000081526004016127e990614bfe565b60405180910390fd5b6000829050600073ffffffffffffffffffffffffffffffffffffffff168573ffffffffffffffffffffffffffffffffffffffff16036128395761283481612f23565b612878565b8373ffffffffffffffffffffffffffffffffffffffff168573ffffffffffffffffffffffffffffffffffffffff1614612877576128768582612f6c565b5b5b600073ffffffffffffffffffffffffffffffffffffffff168473ffffffffffffffffffffffffffffffffffffffff16036128ba576128b5816130d9565b6128f9565b8473ffffffffffffffffffffffffffffffffffffffff168473ffffffffffffffffffffffffffffffffffffffff16146128f8576128f784826131aa565b5b5b5050505050565b50505050565b60006129278473ffffffffffffffffffffffffffffffffffffffff16613229565b15612a80578373ffffffffffffffffffffffffffffffffffffffff1663150b7a02612950611ccb565b8786866040518563ffffffff1660e01b81526004016129729493929190614c73565b6020604051808303816000875af19250505080156129ae57506040513d601f19601f820116820180604052508101906129ab9190614cd4565b60015b612a30573d80600081146129de576040519150601f19603f3d011682016040523d82523d6000602084013e6129e3565b606091505b506000815103612a28576040517f08c379a0000000000000000000000000000000000000000000000000000000008152600401612a1f90614637565b60405180910390fd5b805181602001fd5b63150b7a0260e01b7bffffffffffffffffffffffffffffffffffffffffffffffffffffffff1916817bffffffffffffffffffffffffffffffffffffffffffffffffffffffff191614915050612a85565b600190505b949350505050565b600080600090507a184f03e93ff9f4daa797ed6e38ed64bf6a1f0100000000000000008310612aeb577a184f03e93ff9f4daa797ed6e38ed64bf6a1f0100000000000000008381612ae157612ae0613846565b5b0492506040810190505b6d04ee2d6d415b85acef81000000008310612b28576d04ee2d6d415b85acef81000000008381612b1e57612b1d613846565b5b0492506020810190505b662386f26fc100008310612b5757662386f26fc100008381612b4d57612b4c613846565b5b0492506010810190505b6305f5e1008310612b80576305f5e1008381612b7657612b75613846565b5b0492506008810190505b6127108310612ba5576127108381612b9b57612b9a613846565b5b0492506004810190505b60648310612bc85760648381612bbe57612bbd613846565b5b0492506002810190505b600a8310612bd7576001810190505b80915050919050565b600073ffffffffffffffffffffffffffffffffffffffff168273ffffffffffffffffffffffffffffffffffffffff1603612c4f576040517f08c379a0000000000000000000000000000000000000000000000000000000008152600401612c4690614d4d565b60405180910390fd5b612c5881612361565b15612c98576040517f08c379a0000000000000000000000000000000000000000000000000000000008152600401612c8f90614db9565b60405180910390fd5b612ca66000838360016127a2565b612caf81612361565b15612cef576040517f08c379a0000000000000000000000000000000000000000000000000000000008152600401612ce690614db9565b60405180910390fd5b6001600360008473ffffffffffffffffffffffffffffffffffffffff1673ffffffffffffffffffffffffffffffffffffffff16815260200190815260200160002060008282540192505081905550816002600083815260200190815260200160002060006101000a81548173ffffffffffffffffffffffffffffffffffffffff021916908373ffffffffffffffffffffffffffffffffffffffff160217905550808273ffffffffffffffffffffffffffffffffffffffff16600073ffffffffffffffffffffffffffffffffffffffff167fddf252ad1be2c89b69c2b068fc378daa952ba7f163c4a11628f55a4df523b3ef60405160405180910390a4612df9600083836001612900565b5050565b6001811115612f1d57600073ffffffffffffffffffffffffffffffffffffffff168473ffffffffffffffffffffffffffffffffffffffff1614612e915780600360008673ffffffffffffffffffffffffffffffffffffffff1673ffffffffffffffffffffffffffffffffffffffff1681526020019081526020016000206000828254612e899190614dd9565b925050819055505b600073ffffffffffffffffffffffffffffffffffffffff168373ffffffffffffffffffffffffffffffffffffffff1614612f1c5780600360008573ffffffffffffffffffffffffffffffffffffffff1673ffffffffffffffffffffffffffffffffffffffff1681526020019081526020016000206000828254612f149190613af4565b925050819055505b5b50505050565b6008805490506009600083815260200190815260200160002081905550600881908060018154018082558091505060019003906000526020600020016000909190919091505550565b60006001612f7984611135565b612f839190614dd9565b9050600060076000848152602001908152602001600020549050818114613068576000600660008673ffffffffffffffffffffffffffffffffffffffff1673ffffffffffffffffffffffffffffffffffffffff168152602001908152602001600020600084815260200190815260200160002054905080600660008773ffffffffffffffffffffffffffffffffffffffff1673ffffffffffffffffffffffffffffffffffffffff168152602001908152602001600020600084815260200190815260200160002081905550816007600083815260200190815260200160002081905550505b6007600084815260200190815260200160002060009055600660008573ffffffffffffffffffffffffffffffffffffffff1673ffffffffffffffffffffffffffffffffffffffff16815260200190815260200160002060008381526020019081526020016000206000905550505050565b600060016008805490506130ed9190614dd9565b905060006009600084815260200190815260200160002054905060006008838154811061311d5761311c6138a6565b5b90600052602060002001549050806008838154811061313f5761313e6138a6565b5b90600052602060002001819055508160096000838152602001908152602001600020819055506009600085815260200190815260200160002060009055600880548061318e5761318d614e0d565b5b6001900381819060005260206000200160009055905550505050565b60006131b583611135565b905081600660008573ffffffffffffffffffffffffffffffffffffffff1673ffffffffffffffffffffffffffffffffffffffff168152602001908152602001600020600083815260200190815260200160002081905550806007600084815260200190815260200160002081905550505050565b6000808273ffffffffffffffffffffffffffffffffffffffff163b119050919050565b6000604051905090565b600080fd5b600080fd5b60007fffffffff0000000000000000000000000000000000000000000000000000000082169050919050565b61329581613260565b81146132a057600080fd5b50565b6000813590506132b28161328c565b92915050565b6000602082840312156132ce576132cd613256565b5b60006132dc848285016132a3565b91505092915050565b60008115159050919050565b6132fa816132e5565b82525050565b600060208201905061331560008301846132f1565b92915050565b6000819050919050565b61332e8161331b565b811461333957600080fd5b50565b60008135905061334b81613325565b92915050565b60006020828403121561336757613366613256565b5b60006133758482850161333c565b91505092915050565b600081519050919050565b600082825260208201905092915050565b60005b838110156133b857808201518184015260208101905061339d565b60008484015250505050565b6000601f19601f8301169050919050565b60006133e08261337e565b6133ea8185613389565b93506133fa81856020860161339a565b613403816133c4565b840191505092915050565b6000602082019050818103600083015261342881846133d5565b905092915050565b600073ffffffffffffffffffffffffffffffffffffffff82169050919050565b600061345b82613430565b9050919050565b61346b81613450565b82525050565b60006020820190506134866000830184613462565b92915050565b61349581613450565b81146134a057600080fd5b50565b6000813590506134b28161348c565b92915050565b600080604083850312156134cf576134ce613256565b5b60006134dd858286016134a3565b92505060206134ee8582860161333c565b9150509250929050565b6000806040838503121561350f5761350e613256565b5b600061351d8582860161333c565b925050602061352e858286016134a3565b9150509250929050565b6135418161331b565b82525050565b600060208201905061355c6000830184613538565b92915050565b60008060006060848603121561357b5761357a613256565b5b6000613589868287016134a3565b935050602061359a868287016134a3565b92505060406135ab8682870161333c565b9150509250925092565b6000602082840312156135cb576135ca613256565b5b60006135d9848285016134a3565b91505092915050565b6135eb816132e5565b81146135f657600080fd5b50565b600081359050613608816135e2565b92915050565b6000806040838503121561362557613624613256565b5b6000613633858286016134a3565b9250506020613644858286016135f9565b9150509250929050565b600080fd5b600080fd5b7f4e487b7100000000000000000000000000000000000000000000000000000000600052604160045260246000fd5b613690826133c4565b810181811067ffffffffffffffff821117156136af576136ae613658565b5b80604052505050565b60006136c261324c565b90506136ce8282613687565b919050565b600067ffffffffffffffff8211156136ee576136ed613658565b5b6136f7826133c4565b9050602081019050919050565b82818337600083830152505050565b6000613726613721846136d3565b6136b8565b90508281526020810184848401111561374257613741613653565b5b61374d848285613704565b509392505050565b600082601f83011261376a5761376961364e565b5b813561377a848260208601613713565b91505092915050565b6000806000806080858703121561379d5761379c613256565b5b60006137ab878288016134a3565b94505060206137bc878288016134a3565b93505060406137cd8782880161333c565b925050606085013567ffffffffffffffff8111156137ee576137ed61325b565b5b6137fa87828801613755565b91505092959194509250565b6000806040838503121561381d5761381c613256565b5b600061382b858286016134a3565b925050602061383c858286016134a3565b9150509250929050565b7f4e487b7100000000000000000000000000000000000000000000000000000000600052601260045260246000fd5b60006138808261331b565b915061388b8361331b565b92508261389b5761389a613846565b5b828206905092915050565b7f4e487b7100000000000000000000000000000000000000000000000000000000600052603260045260246000fd5b7f4e487b7100000000000000000000000000000000000000000000000000000000600052602260045260246000fd5b6000600282049050600182168061391c57607f821691505b60208210810361392f5761392e6138d5565b5b50919050565b7f4552433732313a20617070726f76616c20746f2063757272656e74206f776e6560008201527f7200000000000000000000000000000000000000000000000000000000000000602082015250565b6000613991602183613389565b915061399c82613935565b604082019050919050565b600060208201905081810360008301526139c081613984565b9050919050565b7f4552433732313a20617070726f76652063616c6c6572206973206e6f7420746f60008201527f6b656e206f776e6572206f7220617070726f76656420666f7220616c6c000000602082015250565b6000613a23603d83613389565b9150613a2e826139c7565b604082019050919050565b60006020820190508181036000830152613a5281613a16565b9050919050565b7f4e6f204e46542050756e6b73206c6566742e2e2e000000000000000000000000600082015250565b6000613a8f601483613389565b9150613a9a82613a59565b602082019050919050565b60006020820190508181036000830152613abe81613a82565b9050919050565b7f4e487b7100000000000000000000000000000000000000000000000000000000600052601160045260246000fd5b6000613aff8261331b565b9150613b0a8361331b565b9250828201905080821115613b2257613b21613ac5565b5b92915050565b6000819050919050565b613b43613b3e8261331b565b613b28565b82525050565b6000613b558284613b32565b60208201915081905092915050565b7f4552433732313a2063616c6c6572206973206e6f7420746f6b656e206f776e6560008201527f72206f7220617070726f76656400000000000000000000000000000000000000602082015250565b6000613bc0602d83613389565b9150613bcb82613b64565b604082019050919050565b60006020820190508181036000830152613bef81613bb3565b9050919050565b7f455243373231456e756d657261626c653a206f776e657220696e646578206f7560008201527f74206f6620626f756e6473000000000000000000000000000000000000000000602082015250565b6000613c52602b83613389565b9150613c5d82613bf6565b604082019050919050565b60006020820190508181036000830152613c8181613c45565b9050919050565b7f455243373231456e756d657261626c653a20676c6f62616c20696e646578206f60008201527f7574206f6620626f756e64730000000000000000000000000000000000000000602082015250565b6000613ce4602c83613389565b9150613cef82613c88565b604082019050919050565b60006020820190508181036000830152613d1381613cd7565b9050919050565b7f4552433732313a20696e76616c696420746f6b656e2049440000000000000000600082015250565b6000613d50601883613389565b9150613d5b82613d1a565b602082019050919050565b60006020820190508181036000830152613d7f81613d43565b9050919050565b7f4552433732313a2061646472657373207a65726f206973206e6f74206120766160008201527f6c6964206f776e65720000000000000000000000000000000000000000000000602082015250565b6000613de2602983613389565b9150613ded82613d86565b604082019050919050565b60006020820190508181036000830152613e1181613dd5565b9050919050565b7f455243373231204d657461646174613a2055524920717565727920666f72206e60008201527f6f6e65786974656e7420746f6b656e0000000000000000000000000000000000602082015250565b6000613e74602f83613389565b9150613e7f82613e18565b604082019050919050565b60006020820190508181036000830152613ea381613e67565b9050919050565b600081905092915050565b7f7b226e616d65223a20224e46542050756e6b2023000000000000000000000000600082015250565b6000613eeb601483613eaa565b9150613ef682613eb5565b601482019050919050565b6000613f0c8261337e565b613f168185613eaa565b9350613f2681856020860161339a565b80840191505092915050565b7f222c20226465736372697074696f6e223a20224e46542050756e6b206973206160008201527f20636f6c6c656374696f6e206f662039393920756e697175652061766174617260208201527f732067656e65726174656420616e642073746f726564206f6e20636861696e2e60408201527f2053746174732c20696d616765732c20616e64206f746865722066756e63746960608201527f6f6e616c6974792061726520696e74656e74696f6e616c6c79206f6d6974746560808201527f6420666f72206f746865727320746f20696e746572707265742e204665656c2060a08201527f6672656520746f20757365204e46542050756e6b20696e20616e79207761792060c08201527f796f752077616e742e222c2022696d616765223a20220000000000000000000060e082015250565b600061407260f683613eaa565b915061407d82613f32565b60f682019050919050565b7f227d000000000000000000000000000000000000000000000000000000000000600082015250565b60006140be600283613eaa565b91506140c982614088565b600282019050919050565b60006140df82613ede565b91506140eb8285613f01565b91506140f682614065565b91506141028284613f01565b915061410d826140b1565b91508190509392505050565b7f646174613a6170706c69636174696f6e2f6a736f6e3b6261736536342c000000600082015250565b600061414f601d83613eaa565b915061415a82614119565b601d82019050919050565b600061417082614142565b915061417c8284613f01565b915081905092915050565b7f3f00000000000000000000000000000000000000000000000000000000000000600082015250565b60006141bd600183613eaa565b91506141c882614187565b600182019050919050565b60006141df8285613f01565b91506141ea826141b0565b91506141f68284613f01565b91508190509392505050565b60008160011c9050919050565b6000808291508390505b60018511156142595780860481111561423557614234613ac5565b5b60018516156142445780820291505b808102905061425285614202565b9450614219565b94509492505050565b600082614272576001905061432e565b81614280576000905061432e565b816001811461429657600281146142a0576142cf565b600191505061432e565b60ff8411156142b2576142b1613ac5565b5b8360020a9150848211156142c9576142c8613ac5565b5b5061432e565b5060208310610133831016604e8410600b84101617156143045782820a9050838111156142ff576142fe613ac5565b5b61432e565b614311848484600161420f565b9250905081840481111561432857614327613ac5565b5b81810290505b9392505050565b600060ff82169050919050565b600061434d8261331b565b915061435883614335565b92506143857fffffffffffffffffffffffffffffffffffffffffffffffffffffffffffffffff8484614262565b905092915050565b60006143988261331b565b91506143a38361331b565b92508282026143b18161331b565b915082820484148315176143c8576143c7613ac5565b5b5092915050565b60006143da82614335565b91506143e583614335565b9250828201905060ff8111156143fe576143fd613ac5565b5b92915050565b600061440f8261331b565b915061441a8361331b565b92508261442a57614429613846565b5b828204905092915050565b7f4552433732313a207472616e736665722066726f6d20696e636f72726563742060008201527f6f776e6572000000000000000000000000000000000000000000000000000000602082015250565b6000614491602583613389565b915061449c82614435565b604082019050919050565b600060208201905081810360008301526144c081614484565b9050919050565b7f4552433732313a207472616e7366657220746f20746865207a65726f2061646460008201527f7265737300000000000000000000000000000000000000000000000000000000602082015250565b6000614523602483613389565b915061452e826144c7565b604082019050919050565b6000602082019050818103600083015261455281614516565b9050919050565b7f4552433732313a20617070726f766520746f2063616c6c657200000000000000600082015250565b600061458f601983613389565b915061459a82614559565b602082019050919050565b600060208201905081810360008301526145be81614582565b9050919050565b7f4552433732313a207472616e7366657220746f206e6f6e20455243373231526560008201527f63656976657220696d706c656d656e7465720000000000000000000000000000602082015250565b6000614621603283613389565b915061462c826145c5565b604082019050919050565b6000602082019050818103600083015261465081614614565b9050919050565b7f61636365736f72696573547970653d0000000000000000000000000000000000600082015250565b600061468d600f83613eaa565b915061469882614657565b600f82019050919050565b7f26636c6f746865436f6c6f723d00000000000000000000000000000000000000600082015250565b60006146d9600d83613eaa565b91506146e4826146a3565b600d82019050919050565b7f26636c6f746865547970653d0000000000000000000000000000000000000000600082015250565b6000614725600c83613eaa565b9150614730826146ef565b600c82019050919050565b7f26657965547970653d0000000000000000000000000000000000000000000000600082015250565b6000614771600983613eaa565b915061477c8261473b565b600982019050919050565b7f2665796562726f77547970653d00000000000000000000000000000000000000600082015250565b60006147bd600d83613eaa565b91506147c882614787565b600d82019050919050565b7f2666616369616c48616972436f6c6f723d000000000000000000000000000000600082015250565b6000614809601183613eaa565b9150614814826147d3565b601182019050919050565b7f2666616369616c48616972547970653d00000000000000000000000000000000600082015250565b6000614855601083613eaa565b91506148608261481f565b601082019050919050565b7f2668616972436f6c6f723d000000000000000000000000000000000000000000600082015250565b60006148a1600b83613eaa565b91506148ac8261486b565b600b82019050919050565b7f26686174436f6c6f723d00000000000000000000000000000000000000000000600082015250565b60006148ed600a83613eaa565b91506148f8826148b7565b600a82019050919050565b7f2667726170686963547970653d00000000000000000000000000000000000000600082015250565b6000614939600d83613eaa565b915061494482614903565b600d82019050919050565b7f266d6f757468547970653d000000000000000000000000000000000000000000600082015250565b6000614985600b83613eaa565b91506149908261494f565b600b82019050919050565b7f26736b696e436f6c6f723d000000000000000000000000000000000000000000600082015250565b60006149d1600b83613eaa565b91506149dc8261499b565b600b82019050919050565b60006149f282614680565b91506149fe828f613f01565b9150614a09826146cc565b9150614a15828e613f01565b9150614a2082614718565b9150614a2c828d613f01565b9150614a3782614764565b9150614a43828c613f01565b9150614a4e826147b0565b9150614a5a828b613f01565b9150614a65826147fc565b9150614a71828a613f01565b9150614a7c82614848565b9150614a888289613f01565b9150614a9382614894565b9150614a9f8288613f01565b9150614aaa826148e0565b9150614ab68287613f01565b9150614ac18261492c565b9150614acd8286613f01565b9150614ad882614978565b9150614ae48285613f01565b9150614aef826149c4565b9150614afb8284613f01565b91508190509d9c50505050505050505050505050565b7f26746f70547970653d0000000000000000000000000000000000000000000000600082015250565b6000614b47600983613eaa565b9150614b5282614b11565b600982019050919050565b6000614b698285613f01565b9150614b7482614b3a565b9150614b808284613f01565b91508190509392505050565b7f455243373231456e756d657261626c653a20636f6e736563757469766520747260008201527f616e7366657273206e6f7420737570706f727465640000000000000000000000602082015250565b6000614be8603583613389565b9150614bf382614b8c565b604082019050919050565b60006020820190508181036000830152614c1781614bdb565b9050919050565b600081519050919050565b600082825260208201905092915050565b6000614c4582614c1e565b614c4f8185614c29565b9350614c5f81856020860161339a565b614c68816133c4565b840191505092915050565b6000608082019050614c886000830187613462565b614c956020830186613462565b614ca26040830185613538565b8181036060830152614cb48184614c3a565b905095945050505050565b600081519050614cce8161328c565b92915050565b600060208284031215614cea57614ce9613256565b5b6000614cf884828501614cbf565b91505092915050565b7f4552433732313a206d696e7420746f20746865207a65726f2061646472657373600082015250565b6000614d37602083613389565b9150614d4282614d01565b602082019050919050565b60006020820190508181036000830152614d6681614d2a565b9050919050565b7f4552433732313a20746f6b656e20616c7265616479206d696e74656400000000600082015250565b6000614da3601c83613389565b9150614dae82614d6d565b602082019050919050565b60006020820190508181036000830152614dd281614d96565b9050919050565b6000614de48261331b565b9150614def8361331b565b9250828203905081811115614e0757614e06613ac5565b5b92915050565b7f4e487b7100000000000000000000000000000000000000000000000000000000600052603160045260246000fdfe4142434445464748494a4b4c4d4e4f505152535455565758595a6162636465666768696a6b6c6d6e6f707172737475767778797a303132333435363738392b2fa2646970667358221220ed499ba795181b32ad1b2a39a22c9cc7821db93a1633bab8cf82a149b08252c664736f6c63430008110033",
  "linkReferences": {},
  "deployedLinkReferences": {}
}